{
	"data": {
		"bytecode": {
			"linkReferences": {},
			"object": "60806040527f7404e3d104ea7841c3d9e6fd20adfe99b4ad586bc08d8f3bd3afef894cf184de5f1b600155348015610035575f80fd5b50604051610545380380610545833981810160405281019061005791906100fa565b805f806101000a81548173ffffffffffffffffffffffffffffffffffffffff021916908373ffffffffffffffffffffffffffffffffffffffff16021790555050610125565b5f80fd5b5f73ffffffffffffffffffffffffffffffffffffffff82169050919050565b5f6100c9826100a0565b9050919050565b6100d9816100bf565b81146100e3575f80fd5b50565b5f815190506100f4816100d0565b92915050565b5f6020828403121561010f5761010e61009c565b5b5f61011c848285016100e6565b91505092915050565b610413806101325f395ff3fe608060405234801561000f575f80fd5b506004361061003f575f3560e01c80635515f7f614610043578063bac5ff5114610061578063f6fea1bd1461007f575b5f80fd5b61004b61009d565b60405161005891906101e7565b60405180910390f35b6100696100c0565b6040516100769190610218565b60405180910390f35b6100876100c6565b604051610094919061024c565b60405180910390f35b5f8054906101000a900473ffffffffffffffffffffffffffffffffffffffff1681565b60015481565b5f805f8054906101000a900473ffffffffffffffffffffffffffffffffffffffff1673ffffffffffffffffffffffffffffffffffffffff1663f69058c16001546040518263ffffffff1660e01b81526004016101229190610218565b6040805180830381865afa15801561013c573d5f803e3d5ffd5b505050506040513d601f19601f8201168201806040525081019061016091906103b2565b9050806020015191505090565b5f73ffffffffffffffffffffffffffffffffffffffff82169050919050565b5f819050919050565b5f6101af6101aa6101a58461016d565b61018c565b61016d565b9050919050565b5f6101c082610195565b9050919050565b5f6101d1826101b6565b9050919050565b6101e1816101c7565b82525050565b5f6020820190506101fa5f8301846101d8565b92915050565b5f819050919050565b61021281610200565b82525050565b5f60208201905061022b5f830184610209565b92915050565b5f8160170b9050919050565b61024681610231565b82525050565b5f60208201905061025f5f83018461023d565b92915050565b5f604051905090565b5f80fd5b5f80fd5b5f601f19601f8301169050919050565b7f4e487b71000000000000000000000000000000000000000000000000000000005f52604160045260245ffd5b6102bc82610276565b810181811067ffffffffffffffff821117156102db576102da610286565b5b80604052505050565b5f6102ed610265565b90506102f982826102b3565b919050565b5f67ffffffffffffffff82169050919050565b61031a816102fe565b8114610324575f80fd5b50565b5f8151905061033581610311565b92915050565b61034481610231565b811461034e575f80fd5b50565b5f8151905061035f8161033b565b92915050565b5f6040828403121561037a57610379610272565b5b61038460406102e4565b90505f61039384828501610327565b5f8301525060206103a684828501610351565b60208301525092915050565b5f604082840312156103c7576103c661026e565b5b5f6103d484828501610365565b9150509291505056fea2646970667358221220ba02aa2db6acfdfffc18f64402e8717aed2a0153e8b7b84ed2cb3f672cfe4d5064736f6c634300081a0033",
			"opcodes": "PUSH1 0x80 PUSH1 0x40 MSTORE PUSH32 0x7404E3D104EA7841C3D9E6FD20ADFE99B4AD586BC08D8F3BD3AFEF894CF184DE PUSH0 SHL PUSH1 0x1 SSTORE CALLVALUE DUP1 ISZERO PUSH2 0x35 JUMPI PUSH0 DUP1 REVERT JUMPDEST POP PUSH1 0x40 MLOAD PUSH2 0x545 CODESIZE SUB DUP1 PUSH2 0x545 DUP4 CODECOPY DUP2 DUP2 ADD PUSH1 0x40 MSTORE DUP2 ADD SWAP1 PUSH2 0x57 SWAP2 SWAP1 PUSH2 0xFA JUMP JUMPDEST DUP1 PUSH0 DUP1 PUSH2 0x100 EXP DUP2 SLOAD DUP2 PUSH20 0xFFFFFFFFFFFFFFFFFFFFFFFFFFFFFFFFFFFFFFFF MUL NOT AND SWAP1 DUP4 PUSH20 0xFFFFFFFFFFFFFFFFFFFFFFFFFFFFFFFFFFFFFFFF AND MUL OR SWAP1 SSTORE POP POP PUSH2 0x125 JUMP JUMPDEST PUSH0 DUP1 REVERT JUMPDEST PUSH0 PUSH20 0xFFFFFFFFFFFFFFFFFFFFFFFFFFFFFFFFFFFFFFFF DUP3 AND SWAP1 POP SWAP2 SWAP1 POP JUMP JUMPDEST PUSH0 PUSH2 0xC9 DUP3 PUSH2 0xA0 JUMP JUMPDEST SWAP1 POP SWAP2 SWAP1 POP JUMP JUMPDEST PUSH2 0xD9 DUP2 PUSH2 0xBF JUMP JUMPDEST DUP2 EQ PUSH2 0xE3 JUMPI PUSH0 DUP1 REVERT JUMPDEST POP JUMP JUMPDEST PUSH0 DUP2 MLOAD SWAP1 POP PUSH2 0xF4 DUP2 PUSH2 0xD0 JUMP JUMPDEST SWAP3 SWAP2 POP POP JUMP JUMPDEST PUSH0 PUSH1 0x20 DUP3 DUP5 SUB SLT ISZERO PUSH2 0x10F JUMPI PUSH2 0x10E PUSH2 0x9C JUMP JUMPDEST JUMPDEST PUSH0 PUSH2 0x11C DUP5 DUP3 DUP6 ADD PUSH2 0xE6 JUMP JUMPDEST SWAP2 POP POP SWAP3 SWAP2 POP POP JUMP JUMPDEST PUSH2 0x413 DUP1 PUSH2 0x132 PUSH0 CODECOPY PUSH0 RETURN INVALID PUSH1 0x80 PUSH1 0x40 MSTORE CALLVALUE DUP1 ISZERO PUSH2 0xF JUMPI PUSH0 DUP1 REVERT JUMPDEST POP PUSH1 0x4 CALLDATASIZE LT PUSH2 0x3F JUMPI PUSH0 CALLDATALOAD PUSH1 0xE0 SHR DUP1 PUSH4 0x5515F7F6 EQ PUSH2 0x43 JUMPI DUP1 PUSH4 0xBAC5FF51 EQ PUSH2 0x61 JUMPI DUP1 PUSH4 0xF6FEA1BD EQ PUSH2 0x7F JUMPI JUMPDEST PUSH0 DUP1 REVERT JUMPDEST PUSH2 0x4B PUSH2 0x9D JUMP JUMPDEST PUSH1 0x40 MLOAD PUSH2 0x58 SWAP2 SWAP1 PUSH2 0x1E7 JUMP JUMPDEST PUSH1 0x40 MLOAD DUP1 SWAP2 SUB SWAP1 RETURN JUMPDEST PUSH2 0x69 PUSH2 0xC0 JUMP JUMPDEST PUSH1 0x40 MLOAD PUSH2 0x76 SWAP2 SWAP1 PUSH2 0x218 JUMP JUMPDEST PUSH1 0x40 MLOAD DUP1 SWAP2 SUB SWAP1 RETURN JUMPDEST PUSH2 0x87 PUSH2 0xC6 JUMP JUMPDEST PUSH1 0x40 MLOAD PUSH2 0x94 SWAP2 SWAP1 PUSH2 0x24C JUMP JUMPDEST PUSH1 0x40 MLOAD DUP1 SWAP2 SUB SWAP1 RETURN JUMPDEST PUSH0 DUP1 SLOAD SWAP1 PUSH2 0x100 EXP SWAP1 DIV PUSH20 0xFFFFFFFFFFFFFFFFFFFFFFFFFFFFFFFFFFFFFFFF AND DUP2 JUMP JUMPDEST PUSH1 0x1 SLOAD DUP2 JUMP JUMPDEST PUSH0 DUP1 PUSH0 DUP1 SLOAD SWAP1 PUSH2 0x100 EXP SWAP1 DIV PUSH20 0xFFFFFFFFFFFFFFFFFFFFFFFFFFFFFFFFFFFFFFFF AND PUSH20 0xFFFFFFFFFFFFFFFFFFFFFFFFFFFFFFFFFFFFFFFF AND PUSH4 0xF69058C1 PUSH1 0x1 SLOAD PUSH1 0x40 MLOAD DUP3 PUSH4 0xFFFFFFFF AND PUSH1 0xE0 SHL DUP2 MSTORE PUSH1 0x4 ADD PUSH2 0x122 SWAP2 SWAP1 PUSH2 0x218 JUMP JUMPDEST PUSH1 0x40 DUP1 MLOAD DUP1 DUP4 SUB DUP2 DUP7 GAS STATICCALL ISZERO DUP1 ISZERO PUSH2 0x13C JUMPI RETURNDATASIZE PUSH0 DUP1 RETURNDATACOPY RETURNDATASIZE PUSH0 REVERT JUMPDEST POP POP POP POP PUSH1 0x40 MLOAD RETURNDATASIZE PUSH1 0x1F NOT PUSH1 0x1F DUP3 ADD AND DUP3 ADD DUP1 PUSH1 0x40 MSTORE POP DUP2 ADD SWAP1 PUSH2 0x160 SWAP2 SWAP1 PUSH2 0x3B2 JUMP JUMPDEST SWAP1 POP DUP1 PUSH1 0x20 ADD MLOAD SWAP2 POP POP SWAP1 JUMP JUMPDEST PUSH0 PUSH20 0xFFFFFFFFFFFFFFFFFFFFFFFFFFFFFFFFFFFFFFFF DUP3 AND SWAP1 POP SWAP2 SWAP1 POP JUMP JUMPDEST PUSH0 DUP2 SWAP1 POP SWAP2 SWAP1 POP JUMP JUMPDEST PUSH0 PUSH2 0x1AF PUSH2 0x1AA PUSH2 0x1A5 DUP5 PUSH2 0x16D JUMP JUMPDEST PUSH2 0x18C JUMP JUMPDEST PUSH2 0x16D JUMP JUMPDEST SWAP1 POP SWAP2 SWAP1 POP JUMP JUMPDEST PUSH0 PUSH2 0x1C0 DUP3 PUSH2 0x195 JUMP JUMPDEST SWAP1 POP SWAP2 SWAP1 POP JUMP JUMPDEST PUSH0 PUSH2 0x1D1 DUP3 PUSH2 0x1B6 JUMP JUMPDEST SWAP1 POP SWAP2 SWAP1 POP JUMP JUMPDEST PUSH2 0x1E1 DUP2 PUSH2 0x1C7 JUMP JUMPDEST DUP3 MSTORE POP POP JUMP JUMPDEST PUSH0 PUSH1 0x20 DUP3 ADD SWAP1 POP PUSH2 0x1FA PUSH0 DUP4 ADD DUP5 PUSH2 0x1D8 JUMP JUMPDEST SWAP3 SWAP2 POP POP JUMP JUMPDEST PUSH0 DUP2 SWAP1 POP SWAP2 SWAP1 POP JUMP JUMPDEST PUSH2 0x212 DUP2 PUSH2 0x200 JUMP JUMPDEST DUP3 MSTORE POP POP JUMP JUMPDEST PUSH0 PUSH1 0x20 DUP3 ADD SWAP1 POP PUSH2 0x22B PUSH0 DUP4 ADD DUP5 PUSH2 0x209 JUMP JUMPDEST SWAP3 SWAP2 POP POP JUMP JUMPDEST PUSH0 DUP2 PUSH1 0x17 SIGNEXTEND SWAP1 POP SWAP2 SWAP1 POP JUMP JUMPDEST PUSH2 0x246 DUP2 PUSH2 0x231 JUMP JUMPDEST DUP3 MSTORE POP POP JUMP JUMPDEST PUSH0 PUSH1 0x20 DUP3 ADD SWAP1 POP PUSH2 0x25F PUSH0 DUP4 ADD DUP5 PUSH2 0x23D JUMP JUMPDEST SWAP3 SWAP2 POP POP JUMP JUMPDEST PUSH0 PUSH1 0x40 MLOAD SWAP1 POP SWAP1 JUMP JUMPDEST PUSH0 DUP1 REVERT JUMPDEST PUSH0 DUP1 REVERT JUMPDEST PUSH0 PUSH1 0x1F NOT PUSH1 0x1F DUP4 ADD AND SWAP1 POP SWAP2 SWAP1 POP JUMP JUMPDEST PUSH32 0x4E487B7100000000000000000000000000000000000000000000000000000000 PUSH0 MSTORE PUSH1 0x41 PUSH1 0x4 MSTORE PUSH1 0x24 PUSH0 REVERT JUMPDEST PUSH2 0x2BC DUP3 PUSH2 0x276 JUMP JUMPDEST DUP2 ADD DUP2 DUP2 LT PUSH8 0xFFFFFFFFFFFFFFFF DUP3 GT OR ISZERO PUSH2 0x2DB JUMPI PUSH2 0x2DA PUSH2 0x286 JUMP JUMPDEST JUMPDEST DUP1 PUSH1 0x40 MSTORE POP POP POP JUMP JUMPDEST PUSH0 PUSH2 0x2ED PUSH2 0x265 JUMP JUMPDEST SWAP1 POP PUSH2 0x2F9 DUP3 DUP3 PUSH2 0x2B3 JUMP JUMPDEST SWAP2 SWAP1 POP JUMP JUMPDEST PUSH0 PUSH8 0xFFFFFFFFFFFFFFFF DUP3 AND SWAP1 POP SWAP2 SWAP1 POP JUMP JUMPDEST PUSH2 0x31A DUP2 PUSH2 0x2FE JUMP JUMPDEST DUP2 EQ PUSH2 0x324 JUMPI PUSH0 DUP1 REVERT JUMPDEST POP JUMP JUMPDEST PUSH0 DUP2 MLOAD SWAP1 POP PUSH2 0x335 DUP2 PUSH2 0x311 JUMP JUMPDEST SWAP3 SWAP2 POP POP JUMP JUMPDEST PUSH2 0x344 DUP2 PUSH2 0x231 JUMP JUMPDEST DUP2 EQ PUSH2 0x34E JUMPI PUSH0 DUP1 REVERT JUMPDEST POP JUMP JUMPDEST PUSH0 DUP2 MLOAD SWAP1 POP PUSH2 0x35F DUP2 PUSH2 0x33B JUMP JUMPDEST SWAP3 SWAP2 POP POP JUMP JUMPDEST PUSH0 PUSH1 0x40 DUP3 DUP5 SUB SLT ISZERO PUSH2 0x37A JUMPI PUSH2 0x379 PUSH2 0x272 JUMP JUMPDEST JUMPDEST PUSH2 0x384 PUSH1 0x40 PUSH2 0x2E4 JUMP JUMPDEST SWAP1 POP PUSH0 PUSH2 0x393 DUP5 DUP3 DUP6 ADD PUSH2 0x327 JUMP JUMPDEST PUSH0 DUP4 ADD MSTORE POP PUSH1 0x20 PUSH2 0x3A6 DUP5 DUP3 DUP6 ADD PUSH2 0x351 JUMP JUMPDEST PUSH1 0x20 DUP4 ADD MSTORE POP SWAP3 SWAP2 POP POP JUMP JUMPDEST PUSH0 PUSH1 0x40 DUP3 DUP5 SUB SLT ISZERO PUSH2 0x3C7 JUMPI PUSH2 0x3C6 PUSH2 0x26E JUMP JUMPDEST JUMPDEST PUSH0 PUSH2 0x3D4 DUP5 DUP3 DUP6 ADD PUSH2 0x365 JUMP JUMPDEST SWAP2 POP POP SWAP3 SWAP2 POP POP JUMP INVALID LOG2 PUSH5 0x6970667358 0x22 SLT KECCAK256 0xBA MUL 0xAA 0x2D 0xB6 0xAC REVERT SELFDESTRUCT 0xFC XOR 0xF6 PREVRANDAO MUL 0xE8 PUSH18 0x7AED2A0153E8B7B84ED2CB3F672CFE4D5064 PUSH20 0x6F6C634300081A00330000000000000000000000 "
		},
		"gasEstimates": {
			"creation": {
				"codeDepositCost": "208600",
				"executionCost": "infinite",
				"totalCost": "infinite"
			},
			"external": {
				"btcUSD()": "2425",
				"getBTCUSDPrice()": "infinite",
				"stork()": "infinite"
			}
		},
		"methodIdentifiers": {
			"btcUSD()": "bac5ff51",
			"getBTCUSDPrice()": "f6fea1bd",
			"stork()": "5515f7f6"
		}
	},
	"abi": [
		{
			"inputs": [
				{
					"internalType": "address",
					"name": "_storkAddress",
					"type": "address"
				}
			],
			"stateMutability": "nonpayable",
			"type": "constructor"
		},
		{
			"inputs": [],
			"name": "btcUSD",
			"outputs": [
				{
					"internalType": "bytes32",
					"name": "",
					"type": "bytes32"
				}
			],
			"stateMutability": "view",
			"type": "function"
		},
		{
			"inputs": [],
			"name": "getBTCUSDPrice",
			"outputs": [
				{
					"internalType": "int192",
					"name": "",
					"type": "int192"
				}
			],
			"stateMutability": "view",
			"type": "function"
		},
		{
			"inputs": [],
			"name": "stork",
			"outputs": [
				{
					"internalType": "contract IStork",
					"name": "",
					"type": "address"
				}
			],
			"stateMutability": "view",
			"type": "function"
		}
	]
}